:0400000093EF01F089
:100008001A82F3CF0AF0F4CF0BF079EC03F001C0B9
:100018000CF002C00DF0140E0C02F3CF08F0F4CF70
:1000280009F00D02F350092608C001F009C002F0DA
:10003800030E046E036801EC03F001C00EF002C069
:100048000FF0F2A22AEF00F02CEF00F061EF00F0C1
:1000580018501910D8A433EF00F035EF00F061EF15
:1000680000F00EC001F00FC002F03BEC03F083A0DB
:1000780040EF00F043EF00F0838044EF00F08390FE
:10008800000E026E010E016E3BEC03F083A04FEFF1
:1000980000F052EF00F0838053EF00F08390185087
:1000A8001910D8B45AEF00F05DEF00F0010E5EEFC2
:1000B80000F0000E186E196AF292F2A266EF00F0D4
:1000C80068EF00F09DEF00F018041910D8A46FEF46
:1000D80000F071EF00F09DEF00F00EC001F00FC0CE
:1000E80002F03BEC03F083A27CEF00F07FEF00F01E
:1000F800838080EF00F08390000E026E010E016E87
:100108003BEC03F083A28BEF00F08EEF00F08380CE
:100118008FEF00F0839018501910D8B496EF00F0C4
:1001280099EF00F0010E9AEF00F0000E186E196AB0
:10013800F292F0A0A2EF00F0A4EF00F0D9EF00F0E7
:1001480016501710D8A4ABEF00F0ADEF00F0D9EFC0
:1001580000F00EC001F00FC002F03BEC03F083A4E6
:10016800B8EF00F0BBEF00F08384BCEF00F083949D
:10017800000E026E010E016E3BEC03F083A4C7EF84
:1001880000F0CAEF00F08384CBEF00F083941650A0
:100198001710D8B4D2EF00F0D5EF00F0010ED6EF6B
:1001A80000F0000E166E176AF090F0A0DEEF00F077
:1001B800E0EF00F015EF01F016041710D8A4E7EFF0
:1001C80000F0E9EF00F015EF01F00EC001F00FC0EC
:1001D80002F03BEC03F083A6F4EF00F0F7EF00F039
:1001E8008384F8EF00F08394000E026E010E016E16
:1001F8003BEC03F083A603EF01F006EF01F08384E4
:1002080007EF01F0839416501710D8B40EEF01F0E1
:1002180011EF01F0010E12EF01F0000E166E176AD1
:10022800F090F0A21AEF01F01CEF01F051EF01F08D
:1002380014501510D8A423EF01F025EF01F051EF69
:1002480001F00EC001F00FC002F03BEC03F083A8F0
:1002580030EF01F033EF01F0838834EF01F0839839
:10026800000E026E010E016E3BEC03F083A83FEF17
:1002780001F042EF01F0838843EF01F083981450B6
:100288001510D8B44AEF01F04DEF01F0010E4EEF12
:1002980001F0000E146E156AF092F0A256EF01F00C
:1002A80058EF01F08DEF01F014041510D8A45FEF9A
:1002B80001F061EF01F08DEF01F00EC001F00FC009
:1002C80002F03BEC03F083AA6CEF01F06FEF01F052
:1002D800838870EF01F08398000E026E010E016EA4
:1002E8003BEC03F083AA7BEF01F07EEF01F08388FB
:1002F8007FEF01F0839814501510D8B486EF01F001
:1003080089EF01F0010E8AEF01F0000E146E156AF4
:10031800F0920BC0F4FF0AC0F3FF1A9211009DEF90
:0203280003F0E0
:100600000000000E066E000E056E03500410D8B4F4
:100610000CEF03F00EEF03F036EF03F0010E076E60
:1006200016EF03F0D89003360436072A04AE1BEF0A
:1006300003F01DEF03F012EF03F0D89005360636F5
:100640000350015C04500258D8A029EF03F02BEFAF
:1006500003F030EF03F00350015E0450025A0580AE
:10066000D89004320332072E1DEF03F005C001F0CD
:1006700006C002F01200000E046E000E036E55EF6D
:1006800003F0000E066E000E056E0000054A062AF5
:10069000065009E1FA0E055CD8A051EF03F053EFC4
:1006A00003F045EF03F0034A042A0150035C0250B3
:1006B0000458D8A05EEF03F060EF03F041EF03F0C1
:1006C0001200C00E956E836A8DEC03F0F28EF28CF0
:1006D0009380F288F19CF2929382F086F19AF090E6
:1006E0009384F088F198F092F19E75EF03F093EF08
:1006F00001F0C282C2B27FEF03F081EF03F07AEF24
:1007000003F0C350C4CF03F0046A03C004F0036ACB
:100710000310016E0450026E12009280C30EC216C6
:100720000E0EC16EC08EC050C70B1009C06EC050F7
:10073000F80B0209C06EC2801200196A186A176AA3
:10074000166A156A146A1A901A92000161EF03F092
:020000040030CA
:04000000FF081F1EB8
:0200060081FF78
:00000001FF
